{
	"enum.sol": {
		"State": {
			"abi": [
				{
					"inputs": [],
					"name": "changeOwner",
					"outputs": [],
					"stateMutability": "nonpayable",
					"type": "function"
				},
				{
					"inputs": [],
					"name": "lottery",
					"outputs": [
						{
							"internalType": "uint256",
							"name": "",
							"type": "uint256"
						}
					],
					"stateMutability": "view",
					"type": "function"
				},
				{
					"inputs": [],
					"name": "owner",
					"outputs": [],
					"stateMutability": "nonpayable",
					"type": "function"
				},
				{
					"inputs": [],
					"name": "ul",
					"outputs": [
						{
							"internalType": "enum State.user",
							"name": "",
							"type": "uint8"
						}
					],
					"stateMutability": "view",
					"type": "function"
				}
			],
			"devdoc": {
				"kind": "dev",
				"methods": {},
				"version": 1
			},
			"evm": {
				"assembly": "    /* \"enum.sol\":76:380  contract State\r... */\n  mstore(0x40, 0x80)\n    /* \"enum.sol\":155:167  user.allowed */\n  0x00\n    /* \"enum.sol\":140:167  user public ul=user.allowed */\n  dup1\n  exp(0x0100, 0x00)\n  dup2\n  sload\n  dup2\n  0xff\n  mul\n  not\n  and\n  swap1\n  dup4\n  0x02\n  dup2\n  gt\n  iszero\n  tag_1\n  jumpi\n  tag_2\n  tag_3\n  jump\t// in\ntag_2:\ntag_1:\n  mul\n  or\n  swap1\n  sstore\n  pop\n    /* \"enum.sol\":194:198  1000 */\n  0x03e8\n    /* \"enum.sol\":174:198  uint public lottery=1000 */\n  0x01\n  sstore\n    /* \"enum.sol\":76:380  contract State\r... */\n  callvalue\n  dup1\n  iszero\n  tag_4\n  jumpi\n  0x00\n  dup1\n  revert\ntag_4:\n  pop\n  jump(tag_5)\n    /* \"#utility.yul\":7:187   */\ntag_3:\n    /* \"#utility.yul\":55:132   */\n  0x4e487b7100000000000000000000000000000000000000000000000000000000\n    /* \"#utility.yul\":52:53   */\n  0x00\n    /* \"#utility.yul\":45:133   */\n  mstore\n    /* \"#utility.yul\":152:156   */\n  0x21\n    /* \"#utility.yul\":149:150   */\n  0x04\n    /* \"#utility.yul\":142:157   */\n  mstore\n    /* \"#utility.yul\":176:180   */\n  0x24\n    /* \"#utility.yul\":173:174   */\n  0x00\n    /* \"#utility.yul\":166:181   */\n  revert\n    /* \"enum.sol\":76:380  contract State\r... */\ntag_5:\n  dataSize(sub_0)\n  dup1\n  dataOffset(sub_0)\n  0x00\n  codecopy\n  0x00\n  return\nstop\n\nsub_0: assembly {\n        /* \"enum.sol\":76:380  contract State\r... */\n      mstore(0x40, 0x80)\n      callvalue\n      dup1\n      iszero\n      tag_1\n      jumpi\n      0x00\n      dup1\n      revert\n    tag_1:\n      pop\n      jumpi(tag_2, lt(calldatasize, 0x04))\n      shr(0xe0, calldataload(0x00))\n      dup1\n      0x5b54c899\n      eq\n      tag_3\n      jumpi\n      dup1\n      0x62a09477\n      eq\n      tag_4\n      jumpi\n      dup1\n      0x8da5cb5b\n      eq\n      tag_5\n      jumpi\n      dup1\n      0xba13a572\n      eq\n      tag_6\n      jumpi\n    tag_2:\n      0x00\n      dup1\n      revert\n        /* \"enum.sol\":140:167  user public ul=user.allowed */\n    tag_3:\n      tag_7\n      tag_8\n      jump\t// in\n    tag_7:\n      mload(0x40)\n      tag_9\n      swap2\n      swap1\n      tag_10\n      jump\t// in\n    tag_9:\n      mload(0x40)\n      dup1\n      swap2\n      sub\n      swap1\n      return\n        /* \"enum.sol\":310:377  function changeOwner() public{\r... */\n    tag_4:\n      tag_11\n      tag_12\n      jump\t// in\n    tag_11:\n      stop\n        /* \"enum.sol\":205:302  function owner() public{\r... */\n    tag_5:\n      tag_13\n      tag_14\n      jump\t// in\n    tag_13:\n      stop\n        /* \"enum.sol\":174:198  uint public lottery=1000 */\n    tag_6:\n      tag_15\n      tag_16\n      jump\t// in\n    tag_15:\n      mload(0x40)\n      tag_17\n      swap2\n      swap1\n      tag_18\n      jump\t// in\n    tag_17:\n      mload(0x40)\n      dup1\n      swap2\n      sub\n      swap1\n      return\n        /* \"enum.sol\":140:167  user public ul=user.allowed */\n    tag_8:\n      0x00\n      dup1\n      sload\n      swap1\n      0x0100\n      exp\n      swap1\n      div\n      0xff\n      and\n      dup2\n      jump\t// out\n        /* \"enum.sol\":310:377  function changeOwner() public{\r... */\n    tag_12:\n        /* \"enum.sol\":353:369  user.not_allowed */\n      0x01\n        /* \"enum.sol\":350:352  ul */\n      0x00\n      dup1\n        /* \"enum.sol\":350:369  ul=user.not_allowed */\n      0x0100\n      exp\n      dup2\n      sload\n      dup2\n      0xff\n      mul\n      not\n      and\n      swap1\n      dup4\n      0x02\n      dup2\n      gt\n      iszero\n      tag_20\n      jumpi\n      tag_21\n      tag_22\n      jump\t// in\n    tag_21:\n    tag_20:\n      mul\n      or\n      swap1\n      sstore\n      pop\n        /* \"enum.sol\":310:377  function changeOwner() public{\r... */\n      jump\t// out\n        /* \"enum.sol\":205:302  function owner() public{\r... */\n    tag_14:\n        /* \"enum.sol\":246:258  user.allowed */\n      0x00\n        /* \"enum.sol\":242:258  ul==user.allowed */\n      0x02\n      dup2\n      gt\n      iszero\n      tag_24\n      jumpi\n      tag_25\n      tag_22\n      jump\t// in\n    tag_25:\n    tag_24:\n        /* \"enum.sol\":242:244  ul */\n      0x00\n      dup1\n      sload\n      swap1\n      0x0100\n      exp\n      swap1\n      div\n      0xff\n      and\n        /* \"enum.sol\":242:258  ul==user.allowed */\n      0x02\n      dup2\n      gt\n      iszero\n      tag_26\n      jumpi\n      tag_27\n      tag_22\n      jump\t// in\n    tag_27:\n    tag_26:\n      eq\n        /* \"enum.sol\":239:295  if(ul==user.allowed){\r... */\n      iszero\n      tag_28\n      jumpi\n        /* \"enum.sol\":282:283  0 */\n      0x00\n        /* \"enum.sol\":274:281  lottery */\n      0x01\n        /* \"enum.sol\":274:283  lottery=0 */\n      dup2\n      swap1\n      sstore\n      pop\n        /* \"enum.sol\":239:295  if(ul==user.allowed){\r... */\n    tag_28:\n        /* \"enum.sol\":205:302  function owner() public{\r... */\n      jump\t// out\n        /* \"enum.sol\":174:198  uint public lottery=1000 */\n    tag_16:\n      sload(0x01)\n      dup2\n      jump\t// out\n        /* \"#utility.yul\":7:146   */\n    tag_30:\n        /* \"#utility.yul\":98:139   */\n      tag_32\n        /* \"#utility.yul\":133:138   */\n      dup2\n        /* \"#utility.yul\":98:139   */\n      tag_33\n      jump\t// in\n    tag_32:\n        /* \"#utility.yul\":93:96   */\n      dup3\n        /* \"#utility.yul\":86:140   */\n      mstore\n        /* \"#utility.yul\":7:146   */\n      pop\n      pop\n      jump\t// out\n        /* \"#utility.yul\":152:270   */\n    tag_34:\n        /* \"#utility.yul\":239:263   */\n      tag_36\n        /* \"#utility.yul\":257:262   */\n      dup2\n        /* \"#utility.yul\":239:263   */\n      tag_37\n      jump\t// in\n    tag_36:\n        /* \"#utility.yul\":234:237   */\n      dup3\n        /* \"#utility.yul\":227:264   */\n      mstore\n        /* \"#utility.yul\":152:270   */\n      pop\n      pop\n      jump\t// out\n        /* \"#utility.yul\":276:506   */\n    tag_10:\n        /* \"#utility.yul\":373:377   */\n      0x00\n        /* \"#utility.yul\":411:413   */\n      0x20\n        /* \"#utility.yul\":400:409   */\n      dup3\n        /* \"#utility.yul\":396:414   */\n      add\n        /* \"#utility.yul\":388:414   */\n      swap1\n      pop\n        /* \"#utility.yul\":424:499   */\n      tag_39\n        /* \"#utility.yul\":496:497   */\n      0x00\n        /* \"#utility.yul\":485:494   */\n      dup4\n        /* \"#utility.yul\":481:498   */\n      add\n        /* \"#utility.yul\":472:478   */\n      dup5\n        /* \"#utility.yul\":424:499   */\n      tag_30\n      jump\t// in\n    tag_39:\n        /* \"#utility.yul\":276:506   */\n      swap3\n      swap2\n      pop\n      pop\n      jump\t// out\n        /* \"#utility.yul\":512:734   */\n    tag_18:\n        /* \"#utility.yul\":605:609   */\n      0x00\n        /* \"#utility.yul\":643:645   */\n      0x20\n        /* \"#utility.yul\":632:641   */\n      dup3\n        /* \"#utility.yul\":628:646   */\n      add\n        /* \"#utility.yul\":620:646   */\n      swap1\n      pop\n        /* \"#utility.yul\":656:727   */\n      tag_41\n        /* \"#utility.yul\":724:725   */\n      0x00\n        /* \"#utility.yul\":713:722   */\n      dup4\n        /* \"#utility.yul\":709:726   */\n      add\n        /* \"#utility.yul\":700:706   */\n      dup5\n        /* \"#utility.yul\":656:727   */\n      tag_34\n      jump\t// in\n    tag_41:\n        /* \"#utility.yul\":512:734   */\n      swap3\n      swap2\n      pop\n      pop\n      jump\t// out\n        /* \"#utility.yul\":740:863   */\n    tag_42:\n        /* \"#utility.yul\":783:790   */\n      0x00\n        /* \"#utility.yul\":812:817   */\n      dup2\n        /* \"#utility.yul\":801:817   */\n      swap1\n      pop\n        /* \"#utility.yul\":818:857   */\n      tag_44\n        /* \"#utility.yul\":851:856   */\n      dup3\n        /* \"#utility.yul\":818:857   */\n      tag_45\n      jump\t// in\n    tag_44:\n        /* \"#utility.yul\":740:863   */\n      swap2\n      swap1\n      pop\n      jump\t// out\n        /* \"#utility.yul\":869:946   */\n    tag_37:\n        /* \"#utility.yul\":906:913   */\n      0x00\n        /* \"#utility.yul\":935:940   */\n      dup2\n        /* \"#utility.yul\":924:940   */\n      swap1\n      pop\n        /* \"#utility.yul\":869:946   */\n      swap2\n      swap1\n      pop\n      jump\t// out\n        /* \"#utility.yul\":952:1075   */\n    tag_33:\n        /* \"#utility.yul\":1006:1015   */\n      0x00\n        /* \"#utility.yul\":1039:1069   */\n      tag_48\n        /* \"#utility.yul\":1063:1068   */\n      dup3\n        /* \"#utility.yul\":1039:1069   */\n      tag_42\n      jump\t// in\n    tag_48:\n        /* \"#utility.yul\":1026:1069   */\n      swap1\n      pop\n        /* \"#utility.yul\":952:1075   */\n      swap2\n      swap1\n      pop\n      jump\t// out\n        /* \"#utility.yul\":1081:1261   */\n    tag_22:\n        /* \"#utility.yul\":1129:1206   */\n      0x4e487b7100000000000000000000000000000000000000000000000000000000\n        /* \"#utility.yul\":1126:1127   */\n      0x00\n        /* \"#utility.yul\":1119:1207   */\n      mstore\n        /* \"#utility.yul\":1226:1230   */\n      0x21\n        /* \"#utility.yul\":1223:1224   */\n      0x04\n        /* \"#utility.yul\":1216:1231   */\n      mstore\n        /* \"#utility.yul\":1250:1254   */\n      0x24\n        /* \"#utility.yul\":1247:1248   */\n      0x00\n        /* \"#utility.yul\":1240:1255   */\n      revert\n        /* \"#utility.yul\":1267:1378   */\n    tag_45:\n        /* \"#utility.yul\":1346:1347   */\n      0x03\n        /* \"#utility.yul\":1339:1344   */\n      dup2\n        /* \"#utility.yul\":1336:1348   */\n      lt\n        /* \"#utility.yul\":1326:1372   */\n      tag_51\n      jumpi\n        /* \"#utility.yul\":1352:1370   */\n      tag_52\n      tag_22\n      jump\t// in\n    tag_52:\n        /* \"#utility.yul\":1326:1372   */\n    tag_51:\n        /* \"#utility.yul\":1267:1378   */\n      pop\n      jump\t// out\n\n    auxdata: 0xa2646970667358221220d0f556be15e81bfaffd7770cab7012fc7262788ed6c7374c6fd42a4a028d92e064736f6c63430008070033\n}\n",
				"bytecode": {
					"linkReferences": {},
					"object": "608060405260008060006101000a81548160ff0219169083600281111561002957610028610046565b5b02179055506103e860015534801561004057600080fd5b50610075565b7f4e487b7100000000000000000000000000000000000000000000000000000000600052602160045260246000fd5b610225806100846000396000f3fe608060405234801561001057600080fd5b506004361061004c5760003560e01c80635b54c8991461005157806362a094771461006f5780638da5cb5b14610079578063ba13a57214610083575b600080fd5b6100596100a1565b6040516100669190610147565b60405180910390f35b6100776100b2565b005b6100816100de565b005b61008b610123565b6040516100989190610162565b60405180910390f35b60008054906101000a900460ff1681565b60016000806101000a81548160ff021916908360028111156100d7576100d66101ac565b5b0217905550565b600060028111156100f2576100f16101ac565b5b60008054906101000a900460ff166002811115610112576101116101ac565b5b14156101215760006001819055505b565b60015481565b6101328161019a565b82525050565b61014181610190565b82525050565b600060208201905061015c6000830184610129565b92915050565b60006020820190506101776000830184610138565b92915050565b600081905061018b826101db565b919050565b6000819050919050565b60006101a58261017d565b9050919050565b7f4e487b7100000000000000000000000000000000000000000000000000000000600052602160045260246000fd5b600381106101ec576101eb6101ac565b5b5056fea2646970667358221220d0f556be15e81bfaffd7770cab7012fc7262788ed6c7374c6fd42a4a028d92e064736f6c63430008070033",
					"opcodes": "PUSH1 0x80 PUSH1 0x40 MSTORE PUSH1 0x0 DUP1 PUSH1 0x0 PUSH2 0x100 EXP DUP2 SLOAD DUP2 PUSH1 0xFF MUL NOT AND SWAP1 DUP4 PUSH1 0x2 DUP2 GT ISZERO PUSH2 0x29 JUMPI PUSH2 0x28 PUSH2 0x46 JUMP JUMPDEST JUMPDEST MUL OR SWAP1 SSTORE POP PUSH2 0x3E8 PUSH1 0x1 SSTORE CALLVALUE DUP1 ISZERO PUSH2 0x40 JUMPI PUSH1 0x0 DUP1 REVERT JUMPDEST POP PUSH2 0x75 JUMP JUMPDEST PUSH32 0x4E487B7100000000000000000000000000000000000000000000000000000000 PUSH1 0x0 MSTORE PUSH1 0x21 PUSH1 0x4 MSTORE PUSH1 0x24 PUSH1 0x0 REVERT JUMPDEST PUSH2 0x225 DUP1 PUSH2 0x84 PUSH1 0x0 CODECOPY PUSH1 0x0 RETURN INVALID PUSH1 0x80 PUSH1 0x40 MSTORE CALLVALUE DUP1 ISZERO PUSH2 0x10 JUMPI PUSH1 0x0 DUP1 REVERT JUMPDEST POP PUSH1 0x4 CALLDATASIZE LT PUSH2 0x4C JUMPI PUSH1 0x0 CALLDATALOAD PUSH1 0xE0 SHR DUP1 PUSH4 0x5B54C899 EQ PUSH2 0x51 JUMPI DUP1 PUSH4 0x62A09477 EQ PUSH2 0x6F JUMPI DUP1 PUSH4 0x8DA5CB5B EQ PUSH2 0x79 JUMPI DUP1 PUSH4 0xBA13A572 EQ PUSH2 0x83 JUMPI JUMPDEST PUSH1 0x0 DUP1 REVERT JUMPDEST PUSH2 0x59 PUSH2 0xA1 JUMP JUMPDEST PUSH1 0x40 MLOAD PUSH2 0x66 SWAP2 SWAP1 PUSH2 0x147 JUMP JUMPDEST PUSH1 0x40 MLOAD DUP1 SWAP2 SUB SWAP1 RETURN JUMPDEST PUSH2 0x77 PUSH2 0xB2 JUMP JUMPDEST STOP JUMPDEST PUSH2 0x81 PUSH2 0xDE JUMP JUMPDEST STOP JUMPDEST PUSH2 0x8B PUSH2 0x123 JUMP JUMPDEST PUSH1 0x40 MLOAD PUSH2 0x98 SWAP2 SWAP1 PUSH2 0x162 JUMP JUMPDEST PUSH1 0x40 MLOAD DUP1 SWAP2 SUB SWAP1 RETURN JUMPDEST PUSH1 0x0 DUP1 SLOAD SWAP1 PUSH2 0x100 EXP SWAP1 DIV PUSH1 0xFF AND DUP2 JUMP JUMPDEST PUSH1 0x1 PUSH1 0x0 DUP1 PUSH2 0x100 EXP DUP2 SLOAD DUP2 PUSH1 0xFF MUL NOT AND SWAP1 DUP4 PUSH1 0x2 DUP2 GT ISZERO PUSH2 0xD7 JUMPI PUSH2 0xD6 PUSH2 0x1AC JUMP JUMPDEST JUMPDEST MUL OR SWAP1 SSTORE POP JUMP JUMPDEST PUSH1 0x0 PUSH1 0x2 DUP2 GT ISZERO PUSH2 0xF2 JUMPI PUSH2 0xF1 PUSH2 0x1AC JUMP JUMPDEST JUMPDEST PUSH1 0x0 DUP1 SLOAD SWAP1 PUSH2 0x100 EXP SWAP1 DIV PUSH1 0xFF AND PUSH1 0x2 DUP2 GT ISZERO PUSH2 0x112 JUMPI PUSH2 0x111 PUSH2 0x1AC JUMP JUMPDEST JUMPDEST EQ ISZERO PUSH2 0x121 JUMPI PUSH1 0x0 PUSH1 0x1 DUP2 SWAP1 SSTORE POP JUMPDEST JUMP JUMPDEST PUSH1 0x1 SLOAD DUP2 JUMP JUMPDEST PUSH2 0x132 DUP2 PUSH2 0x19A JUMP JUMPDEST DUP3 MSTORE POP POP JUMP JUMPDEST PUSH2 0x141 DUP2 PUSH2 0x190 JUMP JUMPDEST DUP3 MSTORE POP POP JUMP JUMPDEST PUSH1 0x0 PUSH1 0x20 DUP3 ADD SWAP1 POP PUSH2 0x15C PUSH1 0x0 DUP4 ADD DUP5 PUSH2 0x129 JUMP JUMPDEST SWAP3 SWAP2 POP POP JUMP JUMPDEST PUSH1 0x0 PUSH1 0x20 DUP3 ADD SWAP1 POP PUSH2 0x177 PUSH1 0x0 DUP4 ADD DUP5 PUSH2 0x138 JUMP JUMPDEST SWAP3 SWAP2 POP POP JUMP JUMPDEST PUSH1 0x0 DUP2 SWAP1 POP PUSH2 0x18B DUP3 PUSH2 0x1DB JUMP JUMPDEST SWAP2 SWAP1 POP JUMP JUMPDEST PUSH1 0x0 DUP2 SWAP1 POP SWAP2 SWAP1 POP JUMP JUMPDEST PUSH1 0x0 PUSH2 0x1A5 DUP3 PUSH2 0x17D JUMP JUMPDEST SWAP1 POP SWAP2 SWAP1 POP JUMP JUMPDEST PUSH32 0x4E487B7100000000000000000000000000000000000000000000000000000000 PUSH1 0x0 MSTORE PUSH1 0x21 PUSH1 0x4 MSTORE PUSH1 0x24 PUSH1 0x0 REVERT JUMPDEST PUSH1 0x3 DUP2 LT PUSH2 0x1EC JUMPI PUSH2 0x1EB PUSH2 0x1AC JUMP JUMPDEST JUMPDEST POP JUMP INVALID LOG2 PUSH5 0x6970667358 0x22 SLT KECCAK256 0xD0 CREATE2 JUMP 0xBE ISZERO 0xE8 SHL STATICCALL SELFDESTRUCT 0xD7 PUSH24 0xCAB7012FC7262788ED6C7374C6FD42A4A028D92E064736F PUSH13 0x63430008070033000000000000 "
				},
				"gasEstimates": {
					"creation": {
						"codeDepositCost": "109800",
						"executionCost": "46564",
						"totalCost": "156364"
					},
					"external": {
						"changeOwner()": "24431",
						"lottery()": "2473",
						"owner()": "7391",
						"ul()": "2535"
					}
				},
				"methodIdentifiers": {
					"changeOwner()": "62a09477",
					"lottery()": "ba13a572",
					"owner()": "8da5cb5b",
					"ul()": "5b54c899"
				}
			},
			"storageLayout": {
				"storage": [
					{
						"astId": 10,
						"contract": "enum.sol:State",
						"label": "ul",
						"offset": 0,
						"slot": "0",
						"type": "t_enum(user)5"
					},
					{
						"astId": 13,
						"contract": "enum.sol:State",
						"label": "lottery",
						"offset": 0,
						"slot": "1",
						"type": "t_uint256"
					}
				],
				"types": {
					"t_enum(user)5": {
						"encoding": "inplace",
						"label": "enum State.user",
						"numberOfBytes": "1"
					},
					"t_uint256": {
						"encoding": "inplace",
						"label": "uint256",
						"numberOfBytes": "32"
					}
				}
			},
			"userdoc": {
				"kind": "user",
				"methods": {},
				"version": 1
			}
		}
	}
}