{
	"mappingWithStruct.sol": {
		"mappingWithStruct": {
			"abi": [
				{
					"inputs": [
						{
							"internalType": "uint256",
							"name": "",
							"type": "uint256"
						}
					],
					"name": "data",
					"outputs": [
						{
							"internalType": "string",
							"name": "name",
							"type": "string"
						},
						{
							"internalType": "uint256",
							"name": "class",
							"type": "uint256"
						}
					],
					"stateMutability": "view",
					"type": "function"
				},
				{
					"inputs": [
						{
							"internalType": "uint256",
							"name": "_roll",
							"type": "uint256"
						},
						{
							"internalType": "string",
							"name": "_name",
							"type": "string"
						},
						{
							"internalType": "uint256",
							"name": "_class",
							"type": "uint256"
						}
					],
					"name": "setter",
					"outputs": [],
					"stateMutability": "nonpayable",
					"type": "function"
				}
			],
			"devdoc": {
				"kind": "dev",
				"methods": {},
				"version": 1
			},
			"evm": {
				"assembly": "    /* \"mappingWithStruct.sol\":76:348  contract mappingWithStruct{\r... */\n  mstore(0x40, 0x80)\n  callvalue\n  dup1\n  iszero\n  tag_1\n  jumpi\n  0x00\n  dup1\n  revert\ntag_1:\n  pop\n  dataSize(sub_0)\n  dup1\n  dataOffset(sub_0)\n  0x00\n  codecopy\n  0x00\n  return\nstop\n\nsub_0: assembly {\n        /* \"mappingWithStruct.sol\":76:348  contract mappingWithStruct{\r... */\n      mstore(0x40, 0x80)\n      callvalue\n      dup1\n      iszero\n      tag_1\n      jumpi\n      0x00\n      dup1\n      revert\n    tag_1:\n      pop\n      jumpi(tag_2, lt(calldatasize, 0x04))\n      shr(0xe0, calldataload(0x00))\n      dup1\n      0x0c22cf41\n      eq\n      tag_3\n      jumpi\n      dup1\n      0xf0ba8440\n      eq\n      tag_4\n      jumpi\n    tag_2:\n      0x00\n      dup1\n      revert\n        /* \"mappingWithStruct.sol\":224:345  function setter(uint _roll,string memory _name,uint _class) public\r... */\n    tag_3:\n      tag_5\n      0x04\n      dup1\n      calldatasize\n      sub\n      dup2\n      add\n      swap1\n      tag_6\n      swap2\n      swap1\n      tag_7\n      jump\t// in\n    tag_6:\n      tag_8\n      jump\t// in\n    tag_5:\n      stop\n        /* \"mappingWithStruct.sol\":182:216  mapping(uint=>Student) public data */\n    tag_4:\n      tag_9\n      0x04\n      dup1\n      calldatasize\n      sub\n      dup2\n      add\n      swap1\n      tag_10\n      swap2\n      swap1\n      tag_11\n      jump\t// in\n    tag_10:\n      tag_12\n      jump\t// in\n    tag_9:\n      mload(0x40)\n      tag_13\n      swap3\n      swap2\n      swap1\n      tag_14\n      jump\t// in\n    tag_13:\n      mload(0x40)\n      dup1\n      swap2\n      sub\n      swap1\n      return\n        /* \"mappingWithStruct.sol\":224:345  function setter(uint _roll,string memory _name,uint _class) public\r... */\n    tag_8:\n        /* \"mappingWithStruct.sol\":317:338  Student(_name,_class) */\n      mload(0x40)\n      dup1\n      0x40\n      add\n      0x40\n      mstore\n      dup1\n        /* \"mappingWithStruct.sol\":325:330  _name */\n      dup4\n        /* \"mappingWithStruct.sol\":317:338  Student(_name,_class) */\n      dup2\n      mstore\n      0x20\n      add\n        /* \"mappingWithStruct.sol\":331:337  _class */\n      dup3\n        /* \"mappingWithStruct.sol\":317:338  Student(_name,_class) */\n      dup2\n      mstore\n      pop\n        /* \"mappingWithStruct.sol\":305:309  data */\n      0x00\n        /* \"mappingWithStruct.sol\":305:316  data[_roll] */\n      dup1\n        /* \"mappingWithStruct.sol\":310:315  _roll */\n      dup6\n        /* \"mappingWithStruct.sol\":305:316  data[_roll] */\n      dup2\n      mstore\n      0x20\n      add\n      swap1\n      dup2\n      mstore\n      0x20\n      add\n      0x00\n      keccak256\n        /* \"mappingWithStruct.sol\":305:338  data[_roll]=Student(_name,_class) */\n      0x00\n      dup3\n      add\n      mload\n      dup2\n      0x00\n      add\n      swap1\n      dup1\n      mload\n      swap1\n      0x20\n      add\n      swap1\n      tag_16\n      swap3\n      swap2\n      swap1\n      tag_17\n      jump\t// in\n    tag_16:\n      pop\n      0x20\n      dup3\n      add\n      mload\n      dup2\n      0x01\n      add\n      sstore\n      swap1\n      pop\n      pop\n        /* \"mappingWithStruct.sol\":224:345  function setter(uint _roll,string memory _name,uint _class) public\r... */\n      pop\n      pop\n      pop\n      jump\t// out\n        /* \"mappingWithStruct.sol\":182:216  mapping(uint=>Student) public data */\n    tag_12:\n      mstore(0x20, 0x00)\n      dup1\n      0x00\n      mstore\n      keccak256(0x00, 0x40)\n      0x00\n      swap2\n      pop\n      swap1\n      pop\n      dup1\n      0x00\n      add\n      dup1\n      sload\n      tag_18\n      swap1\n      tag_19\n      jump\t// in\n    tag_18:\n      dup1\n      0x1f\n      add\n      0x20\n      dup1\n      swap2\n      div\n      mul\n      0x20\n      add\n      mload(0x40)\n      swap1\n      dup2\n      add\n      0x40\n      mstore\n      dup1\n      swap3\n      swap2\n      swap1\n      dup2\n      dup2\n      mstore\n      0x20\n      add\n      dup3\n      dup1\n      sload\n      tag_20\n      swap1\n      tag_19\n      jump\t// in\n    tag_20:\n      dup1\n      iszero\n      tag_21\n      jumpi\n      dup1\n      0x1f\n      lt\n      tag_22\n      jumpi\n      0x0100\n      dup1\n      dup4\n      sload\n      div\n      mul\n      dup4\n      mstore\n      swap2\n      0x20\n      add\n      swap2\n      jump(tag_21)\n    tag_22:\n      dup3\n      add\n      swap2\n      swap1\n      0x00\n      mstore\n      keccak256(0x00, 0x20)\n      swap1\n    tag_23:\n      dup2\n      sload\n      dup2\n      mstore\n      swap1\n      0x01\n      add\n      swap1\n      0x20\n      add\n      dup1\n      dup4\n      gt\n      tag_23\n      jumpi\n      dup3\n      swap1\n      sub\n      0x1f\n      and\n      dup3\n      add\n      swap2\n    tag_21:\n      pop\n      pop\n      pop\n      pop\n      pop\n      swap1\n      dup1\n      0x01\n      add\n      sload\n      swap1\n      pop\n      dup3\n      jump\t// out\n    tag_17:\n      dup3\n      dup1\n      sload\n      tag_24\n      swap1\n      tag_19\n      jump\t// in\n    tag_24:\n      swap1\n      0x00\n      mstore\n      keccak256(0x00, 0x20)\n      swap1\n      0x1f\n      add\n      0x20\n      swap1\n      div\n      dup2\n      add\n      swap3\n      dup3\n      tag_26\n      jumpi\n      0x00\n      dup6\n      sstore\n      jump(tag_25)\n    tag_26:\n      dup3\n      0x1f\n      lt\n      tag_27\n      jumpi\n      dup1\n      mload\n      not(0xff)\n      and\n      dup4\n      dup1\n      add\n      or\n      dup6\n      sstore\n      jump(tag_25)\n    tag_27:\n      dup3\n      dup1\n      add\n      0x01\n      add\n      dup6\n      sstore\n      dup3\n      iszero\n      tag_25\n      jumpi\n      swap2\n      dup3\n      add\n    tag_28:\n      dup3\n      dup2\n      gt\n      iszero\n      tag_29\n      jumpi\n      dup3\n      mload\n      dup3\n      sstore\n      swap2\n      0x20\n      add\n      swap2\n      swap1\n      0x01\n      add\n      swap1\n      jump(tag_28)\n    tag_29:\n    tag_25:\n      pop\n      swap1\n      pop\n      tag_30\n      swap2\n      swap1\n      tag_31\n      jump\t// in\n    tag_30:\n      pop\n      swap1\n      jump\t// out\n    tag_31:\n    tag_32:\n      dup1\n      dup3\n      gt\n      iszero\n      tag_33\n      jumpi\n      0x00\n      dup2\n      0x00\n      swap1\n      sstore\n      pop\n      0x01\n      add\n      jump(tag_32)\n    tag_33:\n      pop\n      swap1\n      jump\t// out\n        /* \"#utility.yul\":7:419   */\n    tag_35:\n        /* \"#utility.yul\":85:90   */\n      0x00\n        /* \"#utility.yul\":110:176   */\n      tag_37\n        /* \"#utility.yul\":126:175   */\n      tag_38\n        /* \"#utility.yul\":168:174   */\n      dup5\n        /* \"#utility.yul\":126:175   */\n      tag_39\n      jump\t// in\n    tag_38:\n        /* \"#utility.yul\":110:176   */\n      tag_40\n      jump\t// in\n    tag_37:\n        /* \"#utility.yul\":101:176   */\n      swap1\n      pop\n        /* \"#utility.yul\":199:205   */\n      dup3\n        /* \"#utility.yul\":192:197   */\n      dup2\n        /* \"#utility.yul\":185:206   */\n      mstore\n        /* \"#utility.yul\":237:241   */\n      0x20\n        /* \"#utility.yul\":230:235   */\n      dup2\n        /* \"#utility.yul\":226:242   */\n      add\n        /* \"#utility.yul\":275:278   */\n      dup5\n        /* \"#utility.yul\":266:272   */\n      dup5\n        /* \"#utility.yul\":261:264   */\n      dup5\n        /* \"#utility.yul\":257:273   */\n      add\n        /* \"#utility.yul\":254:279   */\n      gt\n        /* \"#utility.yul\":251:363   */\n      iszero\n      tag_41\n      jumpi\n        /* \"#utility.yul\":282:361   */\n      tag_42\n      tag_43\n      jump\t// in\n    tag_42:\n        /* \"#utility.yul\":251:363   */\n    tag_41:\n        /* \"#utility.yul\":372:413   */\n      tag_44\n        /* \"#utility.yul\":406:412   */\n      dup5\n        /* \"#utility.yul\":401:404   */\n      dup3\n        /* \"#utility.yul\":396:399   */\n      dup6\n        /* \"#utility.yul\":372:413   */\n      tag_45\n      jump\t// in\n    tag_44:\n        /* \"#utility.yul\":91:419   */\n      pop\n        /* \"#utility.yul\":7:419   */\n      swap4\n      swap3\n      pop\n      pop\n      pop\n      jump\t// out\n        /* \"#utility.yul\":439:779   */\n    tag_46:\n        /* \"#utility.yul\":495:500   */\n      0x00\n        /* \"#utility.yul\":544:547   */\n      dup3\n        /* \"#utility.yul\":537:541   */\n      0x1f\n        /* \"#utility.yul\":529:535   */\n      dup4\n        /* \"#utility.yul\":525:542   */\n      add\n        /* \"#utility.yul\":521:548   */\n      slt\n        /* \"#utility.yul\":511:633   */\n      tag_48\n      jumpi\n        /* \"#utility.yul\":552:631   */\n      tag_49\n      tag_50\n      jump\t// in\n    tag_49:\n        /* \"#utility.yul\":511:633   */\n    tag_48:\n        /* \"#utility.yul\":669:675   */\n      dup2\n        /* \"#utility.yul\":656:676   */\n      calldataload\n        /* \"#utility.yul\":694:773   */\n      tag_51\n        /* \"#utility.yul\":769:772   */\n      dup5\n        /* \"#utility.yul\":761:767   */\n      dup3\n        /* \"#utility.yul\":754:758   */\n      0x20\n        /* \"#utility.yul\":746:752   */\n      dup7\n        /* \"#utility.yul\":742:759   */\n      add\n        /* \"#utility.yul\":694:773   */\n      tag_35\n      jump\t// in\n    tag_51:\n        /* \"#utility.yul\":685:773   */\n      swap2\n      pop\n        /* \"#utility.yul\":501:779   */\n      pop\n        /* \"#utility.yul\":439:779   */\n      swap3\n      swap2\n      pop\n      pop\n      jump\t// out\n        /* \"#utility.yul\":785:924   */\n    tag_52:\n        /* \"#utility.yul\":831:836   */\n      0x00\n        /* \"#utility.yul\":869:875   */\n      dup2\n        /* \"#utility.yul\":856:876   */\n      calldataload\n        /* \"#utility.yul\":847:876   */\n      swap1\n      pop\n        /* \"#utility.yul\":885:918   */\n      tag_54\n        /* \"#utility.yul\":912:917   */\n      dup2\n        /* \"#utility.yul\":885:918   */\n      tag_55\n      jump\t// in\n    tag_54:\n        /* \"#utility.yul\":785:924   */\n      swap3\n      swap2\n      pop\n      pop\n      jump\t// out\n        /* \"#utility.yul\":930:1259   */\n    tag_11:\n        /* \"#utility.yul\":989:995   */\n      0x00\n        /* \"#utility.yul\":1038:1040   */\n      0x20\n        /* \"#utility.yul\":1026:1035   */\n      dup3\n        /* \"#utility.yul\":1017:1024   */\n      dup5\n        /* \"#utility.yul\":1013:1036   */\n      sub\n        /* \"#utility.yul\":1009:1041   */\n      slt\n        /* \"#utility.yul\":1006:1125   */\n      iszero\n      tag_57\n      jumpi\n        /* \"#utility.yul\":1044:1123   */\n      tag_58\n      tag_59\n      jump\t// in\n    tag_58:\n        /* \"#utility.yul\":1006:1125   */\n    tag_57:\n        /* \"#utility.yul\":1164:1165   */\n      0x00\n        /* \"#utility.yul\":1189:1242   */\n      tag_60\n        /* \"#utility.yul\":1234:1241   */\n      dup5\n        /* \"#utility.yul\":1225:1231   */\n      dup3\n        /* \"#utility.yul\":1214:1223   */\n      dup6\n        /* \"#utility.yul\":1210:1232   */\n      add\n        /* \"#utility.yul\":1189:1242   */\n      tag_52\n      jump\t// in\n    tag_60:\n        /* \"#utility.yul\":1179:1242   */\n      swap2\n      pop\n        /* \"#utility.yul\":1135:1252   */\n      pop\n        /* \"#utility.yul\":930:1259   */\n      swap3\n      swap2\n      pop\n      pop\n      jump\t// out\n        /* \"#utility.yul\":1265:2064   */\n    tag_7:\n        /* \"#utility.yul\":1352:1358   */\n      0x00\n        /* \"#utility.yul\":1360:1366   */\n      dup1\n        /* \"#utility.yul\":1368:1374   */\n      0x00\n        /* \"#utility.yul\":1417:1419   */\n      0x60\n        /* \"#utility.yul\":1405:1414   */\n      dup5\n        /* \"#utility.yul\":1396:1403   */\n      dup7\n        /* \"#utility.yul\":1392:1415   */\n      sub\n        /* \"#utility.yul\":1388:1420   */\n      slt\n        /* \"#utility.yul\":1385:1504   */\n      iszero\n      tag_62\n      jumpi\n        /* \"#utility.yul\":1423:1502   */\n      tag_63\n      tag_59\n      jump\t// in\n    tag_63:\n        /* \"#utility.yul\":1385:1504   */\n    tag_62:\n        /* \"#utility.yul\":1543:1544   */\n      0x00\n        /* \"#utility.yul\":1568:1621   */\n      tag_64\n        /* \"#utility.yul\":1613:1620   */\n      dup7\n        /* \"#utility.yul\":1604:1610   */\n      dup3\n        /* \"#utility.yul\":1593:1602   */\n      dup8\n        /* \"#utility.yul\":1589:1611   */\n      add\n        /* \"#utility.yul\":1568:1621   */\n      tag_52\n      jump\t// in\n    tag_64:\n        /* \"#utility.yul\":1558:1621   */\n      swap4\n      pop\n        /* \"#utility.yul\":1514:1631   */\n      pop\n        /* \"#utility.yul\":1698:1700   */\n      0x20\n        /* \"#utility.yul\":1687:1696   */\n      dup5\n        /* \"#utility.yul\":1683:1701   */\n      add\n        /* \"#utility.yul\":1670:1702   */\n      calldataload\n        /* \"#utility.yul\":1729:1747   */\n      0xffffffffffffffff\n        /* \"#utility.yul\":1721:1727   */\n      dup2\n        /* \"#utility.yul\":1718:1748   */\n      gt\n        /* \"#utility.yul\":1715:1832   */\n      iszero\n      tag_65\n      jumpi\n        /* \"#utility.yul\":1751:1830   */\n      tag_66\n      tag_67\n      jump\t// in\n    tag_66:\n        /* \"#utility.yul\":1715:1832   */\n    tag_65:\n        /* \"#utility.yul\":1856:1919   */\n      tag_68\n        /* \"#utility.yul\":1911:1918   */\n      dup7\n        /* \"#utility.yul\":1902:1908   */\n      dup3\n        /* \"#utility.yul\":1891:1900   */\n      dup8\n        /* \"#utility.yul\":1887:1909   */\n      add\n        /* \"#utility.yul\":1856:1919   */\n      tag_46\n      jump\t// in\n    tag_68:\n        /* \"#utility.yul\":1846:1919   */\n      swap3\n      pop\n        /* \"#utility.yul\":1641:1929   */\n      pop\n        /* \"#utility.yul\":1968:1970   */\n      0x40\n        /* \"#utility.yul\":1994:2047   */\n      tag_69\n        /* \"#utility.yul\":2039:2046   */\n      dup7\n        /* \"#utility.yul\":2030:2036   */\n      dup3\n        /* \"#utility.yul\":2019:2028   */\n      dup8\n        /* \"#utility.yul\":2015:2037   */\n      add\n        /* \"#utility.yul\":1994:2047   */\n      tag_52\n      jump\t// in\n    tag_69:\n        /* \"#utility.yul\":1984:2047   */\n      swap2\n      pop\n        /* \"#utility.yul\":1939:2057   */\n      pop\n        /* \"#utility.yul\":1265:2064   */\n      swap3\n      pop\n      swap3\n      pop\n      swap3\n      jump\t// out\n        /* \"#utility.yul\":2070:2434   */\n    tag_70:\n        /* \"#utility.yul\":2158:2161   */\n      0x00\n        /* \"#utility.yul\":2186:2225   */\n      tag_72\n        /* \"#utility.yul\":2219:2224   */\n      dup3\n        /* \"#utility.yul\":2186:2225   */\n      tag_73\n      jump\t// in\n    tag_72:\n        /* \"#utility.yul\":2241:2312   */\n      tag_74\n        /* \"#utility.yul\":2305:2311   */\n      dup2\n        /* \"#utility.yul\":2300:2303   */\n      dup6\n        /* \"#utility.yul\":2241:2312   */\n      tag_75\n      jump\t// in\n    tag_74:\n        /* \"#utility.yul\":2234:2312   */\n      swap4\n      pop\n        /* \"#utility.yul\":2321:2373   */\n      tag_76\n        /* \"#utility.yul\":2366:2372   */\n      dup2\n        /* \"#utility.yul\":2361:2364   */\n      dup6\n        /* \"#utility.yul\":2354:2358   */\n      0x20\n        /* \"#utility.yul\":2347:2352   */\n      dup7\n        /* \"#utility.yul\":2343:2359   */\n      add\n        /* \"#utility.yul\":2321:2373   */\n      tag_77\n      jump\t// in\n    tag_76:\n        /* \"#utility.yul\":2398:2427   */\n      tag_78\n        /* \"#utility.yul\":2420:2426   */\n      dup2\n        /* \"#utility.yul\":2398:2427   */\n      tag_79\n      jump\t// in\n    tag_78:\n        /* \"#utility.yul\":2393:2396   */\n      dup5\n        /* \"#utility.yul\":2389:2428   */\n      add\n        /* \"#utility.yul\":2382:2428   */\n      swap2\n      pop\n        /* \"#utility.yul\":2162:2434   */\n      pop\n        /* \"#utility.yul\":2070:2434   */\n      swap3\n      swap2\n      pop\n      pop\n      jump\t// out\n        /* \"#utility.yul\":2440:2558   */\n    tag_80:\n        /* \"#utility.yul\":2527:2551   */\n      tag_82\n        /* \"#utility.yul\":2545:2550   */\n      dup2\n        /* \"#utility.yul\":2527:2551   */\n      tag_83\n      jump\t// in\n    tag_82:\n        /* \"#utility.yul\":2522:2525   */\n      dup3\n        /* \"#utility.yul\":2515:2552   */\n      mstore\n        /* \"#utility.yul\":2440:2558   */\n      pop\n      pop\n      jump\t// out\n        /* \"#utility.yul\":2564:2987   */\n    tag_14:\n        /* \"#utility.yul\":2705:2709   */\n      0x00\n        /* \"#utility.yul\":2743:2745   */\n      0x40\n        /* \"#utility.yul\":2732:2741   */\n      dup3\n        /* \"#utility.yul\":2728:2746   */\n      add\n        /* \"#utility.yul\":2720:2746   */\n      swap1\n      pop\n        /* \"#utility.yul\":2792:2801   */\n      dup2\n        /* \"#utility.yul\":2786:2790   */\n      dup2\n        /* \"#utility.yul\":2782:2802   */\n      sub\n        /* \"#utility.yul\":2778:2779   */\n      0x00\n        /* \"#utility.yul\":2767:2776   */\n      dup4\n        /* \"#utility.yul\":2763:2780   */\n      add\n        /* \"#utility.yul\":2756:2803   */\n      mstore\n        /* \"#utility.yul\":2820:2898   */\n      tag_85\n        /* \"#utility.yul\":2893:2897   */\n      dup2\n        /* \"#utility.yul\":2884:2890   */\n      dup6\n        /* \"#utility.yul\":2820:2898   */\n      tag_70\n      jump\t// in\n    tag_85:\n        /* \"#utility.yul\":2812:2898   */\n      swap1\n      pop\n        /* \"#utility.yul\":2908:2980   */\n      tag_86\n        /* \"#utility.yul\":2976:2978   */\n      0x20\n        /* \"#utility.yul\":2965:2974   */\n      dup4\n        /* \"#utility.yul\":2961:2979   */\n      add\n        /* \"#utility.yul\":2952:2958   */\n      dup5\n        /* \"#utility.yul\":2908:2980   */\n      tag_80\n      jump\t// in\n    tag_86:\n        /* \"#utility.yul\":2564:2987   */\n      swap4\n      swap3\n      pop\n      pop\n      pop\n      jump\t// out\n        /* \"#utility.yul\":2993:3122   */\n    tag_40:\n        /* \"#utility.yul\":3027:3033   */\n      0x00\n        /* \"#utility.yul\":3054:3074   */\n      tag_88\n      tag_89\n      jump\t// in\n    tag_88:\n        /* \"#utility.yul\":3044:3074   */\n      swap1\n      pop\n        /* \"#utility.yul\":3083:3116   */\n      tag_90\n        /* \"#utility.yul\":3111:3115   */\n      dup3\n        /* \"#utility.yul\":3103:3109   */\n      dup3\n        /* \"#utility.yul\":3083:3116   */\n      tag_91\n      jump\t// in\n    tag_90:\n        /* \"#utility.yul\":2993:3122   */\n      swap2\n      swap1\n      pop\n      jump\t// out\n        /* \"#utility.yul\":3128:3203   */\n    tag_89:\n        /* \"#utility.yul\":3161:3167   */\n      0x00\n        /* \"#utility.yul\":3194:3196   */\n      0x40\n        /* \"#utility.yul\":3188:3197   */\n      mload\n        /* \"#utility.yul\":3178:3197   */\n      swap1\n      pop\n        /* \"#utility.yul\":3128:3203   */\n      swap1\n      jump\t// out\n        /* \"#utility.yul\":3209:3517   */\n    tag_39:\n        /* \"#utility.yul\":3271:3275   */\n      0x00\n        /* \"#utility.yul\":3361:3379   */\n      0xffffffffffffffff\n        /* \"#utility.yul\":3353:3359   */\n      dup3\n        /* \"#utility.yul\":3350:3380   */\n      gt\n        /* \"#utility.yul\":3347:3403   */\n      iszero\n      tag_94\n      jumpi\n        /* \"#utility.yul\":3383:3401   */\n      tag_95\n      tag_96\n      jump\t// in\n    tag_95:\n        /* \"#utility.yul\":3347:3403   */\n    tag_94:\n        /* \"#utility.yul\":3421:3450   */\n      tag_97\n        /* \"#utility.yul\":3443:3449   */\n      dup3\n        /* \"#utility.yul\":3421:3450   */\n      tag_79\n      jump\t// in\n    tag_97:\n        /* \"#utility.yul\":3413:3450   */\n      swap1\n      pop\n        /* \"#utility.yul\":3505:3509   */\n      0x20\n        /* \"#utility.yul\":3499:3503   */\n      dup2\n        /* \"#utility.yul\":3495:3510   */\n      add\n        /* \"#utility.yul\":3487:3510   */\n      swap1\n      pop\n        /* \"#utility.yul\":3209:3517   */\n      swap2\n      swap1\n      pop\n      jump\t// out\n        /* \"#utility.yul\":3523:3622   */\n    tag_73:\n        /* \"#utility.yul\":3575:3581   */\n      0x00\n        /* \"#utility.yul\":3609:3614   */\n      dup2\n        /* \"#utility.yul\":3603:3615   */\n      mload\n        /* \"#utility.yul\":3593:3615   */\n      swap1\n      pop\n        /* \"#utility.yul\":3523:3622   */\n      swap2\n      swap1\n      pop\n      jump\t// out\n        /* \"#utility.yul\":3628:3797   */\n    tag_75:\n        /* \"#utility.yul\":3712:3723   */\n      0x00\n        /* \"#utility.yul\":3746:3752   */\n      dup3\n        /* \"#utility.yul\":3741:3744   */\n      dup3\n        /* \"#utility.yul\":3734:3753   */\n      mstore\n        /* \"#utility.yul\":3786:3790   */\n      0x20\n        /* \"#utility.yul\":3781:3784   */\n      dup3\n        /* \"#utility.yul\":3777:3791   */\n      add\n        /* \"#utility.yul\":3762:3791   */\n      swap1\n      pop\n        /* \"#utility.yul\":3628:3797   */\n      swap3\n      swap2\n      pop\n      pop\n      jump\t// out\n        /* \"#utility.yul\":3803:3880   */\n    tag_83:\n        /* \"#utility.yul\":3840:3847   */\n      0x00\n        /* \"#utility.yul\":3869:3874   */\n      dup2\n        /* \"#utility.yul\":3858:3874   */\n      swap1\n      pop\n        /* \"#utility.yul\":3803:3880   */\n      swap2\n      swap1\n      pop\n      jump\t// out\n        /* \"#utility.yul\":3886:4040   */\n    tag_45:\n        /* \"#utility.yul\":3970:3976   */\n      dup3\n        /* \"#utility.yul\":3965:3968   */\n      dup2\n        /* \"#utility.yul\":3960:3963   */\n      dup4\n        /* \"#utility.yul\":3947:3977   */\n      calldatacopy\n        /* \"#utility.yul\":4032:4033   */\n      0x00\n        /* \"#utility.yul\":4023:4029   */\n      dup4\n        /* \"#utility.yul\":4018:4021   */\n      dup4\n        /* \"#utility.yul\":4014:4030   */\n      add\n        /* \"#utility.yul\":4007:4034   */\n      mstore\n        /* \"#utility.yul\":3886:4040   */\n      pop\n      pop\n      pop\n      jump\t// out\n        /* \"#utility.yul\":4046:4353   */\n    tag_77:\n        /* \"#utility.yul\":4114:4115   */\n      0x00\n        /* \"#utility.yul\":4124:4237   */\n    tag_103:\n        /* \"#utility.yul\":4138:4144   */\n      dup4\n        /* \"#utility.yul\":4135:4136   */\n      dup2\n        /* \"#utility.yul\":4132:4145   */\n      lt\n        /* \"#utility.yul\":4124:4237   */\n      iszero\n      tag_105\n      jumpi\n        /* \"#utility.yul\":4223:4224   */\n      dup1\n        /* \"#utility.yul\":4218:4221   */\n      dup3\n        /* \"#utility.yul\":4214:4225   */\n      add\n        /* \"#utility.yul\":4208:4226   */\n      mload\n        /* \"#utility.yul\":4204:4205   */\n      dup2\n        /* \"#utility.yul\":4199:4202   */\n      dup5\n        /* \"#utility.yul\":4195:4206   */\n      add\n        /* \"#utility.yul\":4188:4227   */\n      mstore\n        /* \"#utility.yul\":4160:4162   */\n      0x20\n        /* \"#utility.yul\":4157:4158   */\n      dup2\n        /* \"#utility.yul\":4153:4163   */\n      add\n        /* \"#utility.yul\":4148:4163   */\n      swap1\n      pop\n        /* \"#utility.yul\":4124:4237   */\n      jump(tag_103)\n    tag_105:\n        /* \"#utility.yul\":4255:4261   */\n      dup4\n        /* \"#utility.yul\":4252:4253   */\n      dup2\n        /* \"#utility.yul\":4249:4262   */\n      gt\n        /* \"#utility.yul\":4246:4347   */\n      iszero\n      tag_106\n      jumpi\n        /* \"#utility.yul\":4335:4336   */\n      0x00\n        /* \"#utility.yul\":4326:4332   */\n      dup5\n        /* \"#utility.yul\":4321:4324   */\n      dup5\n        /* \"#utility.yul\":4317:4333   */\n      add\n        /* \"#utility.yul\":4310:4337   */\n      mstore\n        /* \"#utility.yul\":4246:4347   */\n    tag_106:\n        /* \"#utility.yul\":4095:4353   */\n      pop\n        /* \"#utility.yul\":4046:4353   */\n      pop\n      pop\n      pop\n      jump\t// out\n        /* \"#utility.yul\":4359:4679   */\n    tag_19:\n        /* \"#utility.yul\":4403:4409   */\n      0x00\n        /* \"#utility.yul\":4440:4441   */\n      0x02\n        /* \"#utility.yul\":4434:4438   */\n      dup3\n        /* \"#utility.yul\":4430:4442   */\n      div\n        /* \"#utility.yul\":4420:4442   */\n      swap1\n      pop\n        /* \"#utility.yul\":4487:4488   */\n      0x01\n        /* \"#utility.yul\":4481:4485   */\n      dup3\n        /* \"#utility.yul\":4477:4489   */\n      and\n        /* \"#utility.yul\":4508:4526   */\n      dup1\n        /* \"#utility.yul\":4498:4579   */\n      tag_108\n      jumpi\n        /* \"#utility.yul\":4564:4568   */\n      0x7f\n        /* \"#utility.yul\":4556:4562   */\n      dup3\n        /* \"#utility.yul\":4552:4569   */\n      and\n        /* \"#utility.yul\":4542:4569   */\n      swap2\n      pop\n        /* \"#utility.yul\":4498:4579   */\n    tag_108:\n        /* \"#utility.yul\":4626:4628   */\n      0x20\n        /* \"#utility.yul\":4618:4624   */\n      dup3\n        /* \"#utility.yul\":4615:4629   */\n      lt\n        /* \"#utility.yul\":4595:4613   */\n      dup2\n        /* \"#utility.yul\":4592:4630   */\n      eq\n        /* \"#utility.yul\":4589:4673   */\n      iszero\n      tag_109\n      jumpi\n        /* \"#utility.yul\":4645:4663   */\n      tag_110\n      tag_111\n      jump\t// in\n    tag_110:\n        /* \"#utility.yul\":4589:4673   */\n    tag_109:\n        /* \"#utility.yul\":4410:4679   */\n      pop\n        /* \"#utility.yul\":4359:4679   */\n      swap2\n      swap1\n      pop\n      jump\t// out\n        /* \"#utility.yul\":4685:4966   */\n    tag_91:\n        /* \"#utility.yul\":4768:4795   */\n      tag_113\n        /* \"#utility.yul\":4790:4794   */\n      dup3\n        /* \"#utility.yul\":4768:4795   */\n      tag_79\n      jump\t// in\n    tag_113:\n        /* \"#utility.yul\":4760:4766   */\n      dup2\n        /* \"#utility.yul\":4756:4796   */\n      add\n        /* \"#utility.yul\":4898:4904   */\n      dup2\n        /* \"#utility.yul\":4886:4896   */\n      dup2\n        /* \"#utility.yul\":4883:4905   */\n      lt\n        /* \"#utility.yul\":4862:4880   */\n      0xffffffffffffffff\n        /* \"#utility.yul\":4850:4860   */\n      dup3\n        /* \"#utility.yul\":4847:4881   */\n      gt\n        /* \"#utility.yul\":4844:4906   */\n      or\n        /* \"#utility.yul\":4841:4929   */\n      iszero\n      tag_114\n      jumpi\n        /* \"#utility.yul\":4909:4927   */\n      tag_115\n      tag_96\n      jump\t// in\n    tag_115:\n        /* \"#utility.yul\":4841:4929   */\n    tag_114:\n        /* \"#utility.yul\":4949:4959   */\n      dup1\n        /* \"#utility.yul\":4945:4947   */\n      0x40\n        /* \"#utility.yul\":4938:4960   */\n      mstore\n        /* \"#utility.yul\":4728:4966   */\n      pop\n        /* \"#utility.yul\":4685:4966   */\n      pop\n      pop\n      jump\t// out\n        /* \"#utility.yul\":4972:5152   */\n    tag_111:\n        /* \"#utility.yul\":5020:5097   */\n      0x4e487b7100000000000000000000000000000000000000000000000000000000\n        /* \"#utility.yul\":5017:5018   */\n      0x00\n        /* \"#utility.yul\":5010:5098   */\n      mstore\n        /* \"#utility.yul\":5117:5121   */\n      0x22\n        /* \"#utility.yul\":5114:5115   */\n      0x04\n        /* \"#utility.yul\":5107:5122   */\n      mstore\n        /* \"#utility.yul\":5141:5145   */\n      0x24\n        /* \"#utility.yul\":5138:5139   */\n      0x00\n        /* \"#utility.yul\":5131:5146   */\n      revert\n        /* \"#utility.yul\":5158:5338   */\n    tag_96:\n        /* \"#utility.yul\":5206:5283   */\n      0x4e487b7100000000000000000000000000000000000000000000000000000000\n        /* \"#utility.yul\":5203:5204   */\n      0x00\n        /* \"#utility.yul\":5196:5284   */\n      mstore\n        /* \"#utility.yul\":5303:5307   */\n      0x41\n        /* \"#utility.yul\":5300:5301   */\n      0x04\n        /* \"#utility.yul\":5293:5308   */\n      mstore\n        /* \"#utility.yul\":5327:5331   */\n      0x24\n        /* \"#utility.yul\":5324:5325   */\n      0x00\n        /* \"#utility.yul\":5317:5332   */\n      revert\n        /* \"#utility.yul\":5344:5461   */\n    tag_50:\n        /* \"#utility.yul\":5453:5454   */\n      0x00\n        /* \"#utility.yul\":5450:5451   */\n      dup1\n        /* \"#utility.yul\":5443:5455   */\n      revert\n        /* \"#utility.yul\":5467:5584   */\n    tag_43:\n        /* \"#utility.yul\":5576:5577   */\n      0x00\n        /* \"#utility.yul\":5573:5574   */\n      dup1\n        /* \"#utility.yul\":5566:5578   */\n      revert\n        /* \"#utility.yul\":5590:5707   */\n    tag_67:\n        /* \"#utility.yul\":5699:5700   */\n      0x00\n        /* \"#utility.yul\":5696:5697   */\n      dup1\n        /* \"#utility.yul\":5689:5701   */\n      revert\n        /* \"#utility.yul\":5713:5830   */\n    tag_59:\n        /* \"#utility.yul\":5822:5823   */\n      0x00\n        /* \"#utility.yul\":5819:5820   */\n      dup1\n        /* \"#utility.yul\":5812:5824   */\n      revert\n        /* \"#utility.yul\":5836:5938   */\n    tag_79:\n        /* \"#utility.yul\":5877:5883   */\n      0x00\n        /* \"#utility.yul\":5928:5930   */\n      0x1f\n        /* \"#utility.yul\":5924:5931   */\n      not\n        /* \"#utility.yul\":5919:5921   */\n      0x1f\n        /* \"#utility.yul\":5912:5917   */\n      dup4\n        /* \"#utility.yul\":5908:5922   */\n      add\n        /* \"#utility.yul\":5904:5932   */\n      and\n        /* \"#utility.yul\":5894:5932   */\n      swap1\n      pop\n        /* \"#utility.yul\":5836:5938   */\n      swap2\n      swap1\n      pop\n      jump\t// out\n        /* \"#utility.yul\":5944:6066   */\n    tag_55:\n        /* \"#utility.yul\":6017:6041   */\n      tag_124\n        /* \"#utility.yul\":6035:6040   */\n      dup2\n        /* \"#utility.yul\":6017:6041   */\n      tag_83\n      jump\t// in\n    tag_124:\n        /* \"#utility.yul\":6010:6015   */\n      dup2\n        /* \"#utility.yul\":6007:6042   */\n      eq\n        /* \"#utility.yul\":5997:6060   */\n      tag_125\n      jumpi\n        /* \"#utility.yul\":6056:6057   */\n      0x00\n        /* \"#utility.yul\":6053:6054   */\n      dup1\n        /* \"#utility.yul\":6046:6058   */\n      revert\n        /* \"#utility.yul\":5997:6060   */\n    tag_125:\n        /* \"#utility.yul\":5944:6066   */\n      pop\n      jump\t// out\n\n    auxdata: 0xa2646970667358221220c27f1608378bbe21c2f9e2c1c5a083e3dd7e13c451d914eb8ec0363c6f40028864736f6c63430008070033\n}\n",
				"bytecode": {
					"linkReferences": {},
					"object": "608060405234801561001057600080fd5b506105b7806100206000396000f3fe608060405234801561001057600080fd5b50600436106100365760003560e01c80630c22cf411461003b578063f0ba844014610057575b600080fd5b610055600480360381019061005091906102df565b610088565b005b610071600480360381019061006c91906102b2565b6100de565b60405161007f929190610396565b60405180910390f35b60405180604001604052808381526020018281525060008085815260200190815260200160002060008201518160000190805190602001906100cb92919061018a565b5060208201518160010155905050505050565b600060205280600052604060002060009150905080600001805461010190610484565b80601f016020809104026020016040519081016040528092919081815260200182805461012d90610484565b801561017a5780601f1061014f5761010080835404028352916020019161017a565b820191906000526020600020905b81548152906001019060200180831161015d57829003601f168201915b5050505050908060010154905082565b82805461019690610484565b90600052602060002090601f0160209004810192826101b857600085556101ff565b82601f106101d157805160ff19168380011785556101ff565b828001600101855582156101ff579182015b828111156101fe5782518255916020019190600101906101e3565b5b50905061020c9190610210565b5090565b5b80821115610229576000816000905550600101610211565b5090565b600061024061023b846103eb565b6103c6565b90508281526020810184848401111561025c5761025b61054a565b5b610267848285610442565b509392505050565b600082601f83011261028457610283610545565b5b813561029484826020860161022d565b91505092915050565b6000813590506102ac8161056a565b92915050565b6000602082840312156102c8576102c7610554565b5b60006102d68482850161029d565b91505092915050565b6000806000606084860312156102f8576102f7610554565b5b60006103068682870161029d565b935050602084013567ffffffffffffffff8111156103275761032661054f565b5b6103338682870161026f565b92505060406103448682870161029d565b9150509250925092565b60006103598261041c565b6103638185610427565b9350610373818560208601610451565b61037c81610559565b840191505092915050565b61039081610438565b82525050565b600060408201905081810360008301526103b0818561034e565b90506103bf6020830184610387565b9392505050565b60006103d06103e1565b90506103dc82826104b6565b919050565b6000604051905090565b600067ffffffffffffffff82111561040657610405610516565b5b61040f82610559565b9050602081019050919050565b600081519050919050565b600082825260208201905092915050565b6000819050919050565b82818337600083830152505050565b60005b8381101561046f578082015181840152602081019050610454565b8381111561047e576000848401525b50505050565b6000600282049050600182168061049c57607f821691505b602082108114156104b0576104af6104e7565b5b50919050565b6104bf82610559565b810181811067ffffffffffffffff821117156104de576104dd610516565b5b80604052505050565b7f4e487b7100000000000000000000000000000000000000000000000000000000600052602260045260246000fd5b7f4e487b7100000000000000000000000000000000000000000000000000000000600052604160045260246000fd5b600080fd5b600080fd5b600080fd5b600080fd5b6000601f19601f8301169050919050565b61057381610438565b811461057e57600080fd5b5056fea2646970667358221220c27f1608378bbe21c2f9e2c1c5a083e3dd7e13c451d914eb8ec0363c6f40028864736f6c63430008070033",
					"opcodes": "PUSH1 0x80 PUSH1 0x40 MSTORE CALLVALUE DUP1 ISZERO PUSH2 0x10 JUMPI PUSH1 0x0 DUP1 REVERT JUMPDEST POP PUSH2 0x5B7 DUP1 PUSH2 0x20 PUSH1 0x0 CODECOPY PUSH1 0x0 RETURN INVALID PUSH1 0x80 PUSH1 0x40 MSTORE CALLVALUE DUP1 ISZERO PUSH2 0x10 JUMPI PUSH1 0x0 DUP1 REVERT JUMPDEST POP PUSH1 0x4 CALLDATASIZE LT PUSH2 0x36 JUMPI PUSH1 0x0 CALLDATALOAD PUSH1 0xE0 SHR DUP1 PUSH4 0xC22CF41 EQ PUSH2 0x3B JUMPI DUP1 PUSH4 0xF0BA8440 EQ PUSH2 0x57 JUMPI JUMPDEST PUSH1 0x0 DUP1 REVERT JUMPDEST PUSH2 0x55 PUSH1 0x4 DUP1 CALLDATASIZE SUB DUP2 ADD SWAP1 PUSH2 0x50 SWAP2 SWAP1 PUSH2 0x2DF JUMP JUMPDEST PUSH2 0x88 JUMP JUMPDEST STOP JUMPDEST PUSH2 0x71 PUSH1 0x4 DUP1 CALLDATASIZE SUB DUP2 ADD SWAP1 PUSH2 0x6C SWAP2 SWAP1 PUSH2 0x2B2 JUMP JUMPDEST PUSH2 0xDE JUMP JUMPDEST PUSH1 0x40 MLOAD PUSH2 0x7F SWAP3 SWAP2 SWAP1 PUSH2 0x396 JUMP JUMPDEST PUSH1 0x40 MLOAD DUP1 SWAP2 SUB SWAP1 RETURN JUMPDEST PUSH1 0x40 MLOAD DUP1 PUSH1 0x40 ADD PUSH1 0x40 MSTORE DUP1 DUP4 DUP2 MSTORE PUSH1 0x20 ADD DUP3 DUP2 MSTORE POP PUSH1 0x0 DUP1 DUP6 DUP2 MSTORE PUSH1 0x20 ADD SWAP1 DUP2 MSTORE PUSH1 0x20 ADD PUSH1 0x0 KECCAK256 PUSH1 0x0 DUP3 ADD MLOAD DUP2 PUSH1 0x0 ADD SWAP1 DUP1 MLOAD SWAP1 PUSH1 0x20 ADD SWAP1 PUSH2 0xCB SWAP3 SWAP2 SWAP1 PUSH2 0x18A JUMP JUMPDEST POP PUSH1 0x20 DUP3 ADD MLOAD DUP2 PUSH1 0x1 ADD SSTORE SWAP1 POP POP POP POP POP JUMP JUMPDEST PUSH1 0x0 PUSH1 0x20 MSTORE DUP1 PUSH1 0x0 MSTORE PUSH1 0x40 PUSH1 0x0 KECCAK256 PUSH1 0x0 SWAP2 POP SWAP1 POP DUP1 PUSH1 0x0 ADD DUP1 SLOAD PUSH2 0x101 SWAP1 PUSH2 0x484 JUMP JUMPDEST DUP1 PUSH1 0x1F ADD PUSH1 0x20 DUP1 SWAP2 DIV MUL PUSH1 0x20 ADD PUSH1 0x40 MLOAD SWAP1 DUP2 ADD PUSH1 0x40 MSTORE DUP1 SWAP3 SWAP2 SWAP1 DUP2 DUP2 MSTORE PUSH1 0x20 ADD DUP3 DUP1 SLOAD PUSH2 0x12D SWAP1 PUSH2 0x484 JUMP JUMPDEST DUP1 ISZERO PUSH2 0x17A JUMPI DUP1 PUSH1 0x1F LT PUSH2 0x14F JUMPI PUSH2 0x100 DUP1 DUP4 SLOAD DIV MUL DUP4 MSTORE SWAP2 PUSH1 0x20 ADD SWAP2 PUSH2 0x17A JUMP JUMPDEST DUP3 ADD SWAP2 SWAP1 PUSH1 0x0 MSTORE PUSH1 0x20 PUSH1 0x0 KECCAK256 SWAP1 JUMPDEST DUP2 SLOAD DUP2 MSTORE SWAP1 PUSH1 0x1 ADD SWAP1 PUSH1 0x20 ADD DUP1 DUP4 GT PUSH2 0x15D JUMPI DUP3 SWAP1 SUB PUSH1 0x1F AND DUP3 ADD SWAP2 JUMPDEST POP POP POP POP POP SWAP1 DUP1 PUSH1 0x1 ADD SLOAD SWAP1 POP DUP3 JUMP JUMPDEST DUP3 DUP1 SLOAD PUSH2 0x196 SWAP1 PUSH2 0x484 JUMP JUMPDEST SWAP1 PUSH1 0x0 MSTORE PUSH1 0x20 PUSH1 0x0 KECCAK256 SWAP1 PUSH1 0x1F ADD PUSH1 0x20 SWAP1 DIV DUP2 ADD SWAP3 DUP3 PUSH2 0x1B8 JUMPI PUSH1 0x0 DUP6 SSTORE PUSH2 0x1FF JUMP JUMPDEST DUP3 PUSH1 0x1F LT PUSH2 0x1D1 JUMPI DUP1 MLOAD PUSH1 0xFF NOT AND DUP4 DUP1 ADD OR DUP6 SSTORE PUSH2 0x1FF JUMP JUMPDEST DUP3 DUP1 ADD PUSH1 0x1 ADD DUP6 SSTORE DUP3 ISZERO PUSH2 0x1FF JUMPI SWAP2 DUP3 ADD JUMPDEST DUP3 DUP2 GT ISZERO PUSH2 0x1FE JUMPI DUP3 MLOAD DUP3 SSTORE SWAP2 PUSH1 0x20 ADD SWAP2 SWAP1 PUSH1 0x1 ADD SWAP1 PUSH2 0x1E3 JUMP JUMPDEST JUMPDEST POP SWAP1 POP PUSH2 0x20C SWAP2 SWAP1 PUSH2 0x210 JUMP JUMPDEST POP SWAP1 JUMP JUMPDEST JUMPDEST DUP1 DUP3 GT ISZERO PUSH2 0x229 JUMPI PUSH1 0x0 DUP2 PUSH1 0x0 SWAP1 SSTORE POP PUSH1 0x1 ADD PUSH2 0x211 JUMP JUMPDEST POP SWAP1 JUMP JUMPDEST PUSH1 0x0 PUSH2 0x240 PUSH2 0x23B DUP5 PUSH2 0x3EB JUMP JUMPDEST PUSH2 0x3C6 JUMP JUMPDEST SWAP1 POP DUP3 DUP2 MSTORE PUSH1 0x20 DUP2 ADD DUP5 DUP5 DUP5 ADD GT ISZERO PUSH2 0x25C JUMPI PUSH2 0x25B PUSH2 0x54A JUMP JUMPDEST JUMPDEST PUSH2 0x267 DUP5 DUP3 DUP6 PUSH2 0x442 JUMP JUMPDEST POP SWAP4 SWAP3 POP POP POP JUMP JUMPDEST PUSH1 0x0 DUP3 PUSH1 0x1F DUP4 ADD SLT PUSH2 0x284 JUMPI PUSH2 0x283 PUSH2 0x545 JUMP JUMPDEST JUMPDEST DUP2 CALLDATALOAD PUSH2 0x294 DUP5 DUP3 PUSH1 0x20 DUP7 ADD PUSH2 0x22D JUMP JUMPDEST SWAP2 POP POP SWAP3 SWAP2 POP POP JUMP JUMPDEST PUSH1 0x0 DUP2 CALLDATALOAD SWAP1 POP PUSH2 0x2AC DUP2 PUSH2 0x56A JUMP JUMPDEST SWAP3 SWAP2 POP POP JUMP JUMPDEST PUSH1 0x0 PUSH1 0x20 DUP3 DUP5 SUB SLT ISZERO PUSH2 0x2C8 JUMPI PUSH2 0x2C7 PUSH2 0x554 JUMP JUMPDEST JUMPDEST PUSH1 0x0 PUSH2 0x2D6 DUP5 DUP3 DUP6 ADD PUSH2 0x29D JUMP JUMPDEST SWAP2 POP POP SWAP3 SWAP2 POP POP JUMP JUMPDEST PUSH1 0x0 DUP1 PUSH1 0x0 PUSH1 0x60 DUP5 DUP7 SUB SLT ISZERO PUSH2 0x2F8 JUMPI PUSH2 0x2F7 PUSH2 0x554 JUMP JUMPDEST JUMPDEST PUSH1 0x0 PUSH2 0x306 DUP7 DUP3 DUP8 ADD PUSH2 0x29D JUMP JUMPDEST SWAP4 POP POP PUSH1 0x20 DUP5 ADD CALLDATALOAD PUSH8 0xFFFFFFFFFFFFFFFF DUP2 GT ISZERO PUSH2 0x327 JUMPI PUSH2 0x326 PUSH2 0x54F JUMP JUMPDEST JUMPDEST PUSH2 0x333 DUP7 DUP3 DUP8 ADD PUSH2 0x26F JUMP JUMPDEST SWAP3 POP POP PUSH1 0x40 PUSH2 0x344 DUP7 DUP3 DUP8 ADD PUSH2 0x29D JUMP JUMPDEST SWAP2 POP POP SWAP3 POP SWAP3 POP SWAP3 JUMP JUMPDEST PUSH1 0x0 PUSH2 0x359 DUP3 PUSH2 0x41C JUMP JUMPDEST PUSH2 0x363 DUP2 DUP6 PUSH2 0x427 JUMP JUMPDEST SWAP4 POP PUSH2 0x373 DUP2 DUP6 PUSH1 0x20 DUP7 ADD PUSH2 0x451 JUMP JUMPDEST PUSH2 0x37C DUP2 PUSH2 0x559 JUMP JUMPDEST DUP5 ADD SWAP2 POP POP SWAP3 SWAP2 POP POP JUMP JUMPDEST PUSH2 0x390 DUP2 PUSH2 0x438 JUMP JUMPDEST DUP3 MSTORE POP POP JUMP JUMPDEST PUSH1 0x0 PUSH1 0x40 DUP3 ADD SWAP1 POP DUP2 DUP2 SUB PUSH1 0x0 DUP4 ADD MSTORE PUSH2 0x3B0 DUP2 DUP6 PUSH2 0x34E JUMP JUMPDEST SWAP1 POP PUSH2 0x3BF PUSH1 0x20 DUP4 ADD DUP5 PUSH2 0x387 JUMP JUMPDEST SWAP4 SWAP3 POP POP POP JUMP JUMPDEST PUSH1 0x0 PUSH2 0x3D0 PUSH2 0x3E1 JUMP JUMPDEST SWAP1 POP PUSH2 0x3DC DUP3 DUP3 PUSH2 0x4B6 JUMP JUMPDEST SWAP2 SWAP1 POP JUMP JUMPDEST PUSH1 0x0 PUSH1 0x40 MLOAD SWAP1 POP SWAP1 JUMP JUMPDEST PUSH1 0x0 PUSH8 0xFFFFFFFFFFFFFFFF DUP3 GT ISZERO PUSH2 0x406 JUMPI PUSH2 0x405 PUSH2 0x516 JUMP JUMPDEST JUMPDEST PUSH2 0x40F DUP3 PUSH2 0x559 JUMP JUMPDEST SWAP1 POP PUSH1 0x20 DUP2 ADD SWAP1 POP SWAP2 SWAP1 POP JUMP JUMPDEST PUSH1 0x0 DUP2 MLOAD SWAP1 POP SWAP2 SWAP1 POP JUMP JUMPDEST PUSH1 0x0 DUP3 DUP3 MSTORE PUSH1 0x20 DUP3 ADD SWAP1 POP SWAP3 SWAP2 POP POP JUMP JUMPDEST PUSH1 0x0 DUP2 SWAP1 POP SWAP2 SWAP1 POP JUMP JUMPDEST DUP3 DUP2 DUP4 CALLDATACOPY PUSH1 0x0 DUP4 DUP4 ADD MSTORE POP POP POP JUMP JUMPDEST PUSH1 0x0 JUMPDEST DUP4 DUP2 LT ISZERO PUSH2 0x46F JUMPI DUP1 DUP3 ADD MLOAD DUP2 DUP5 ADD MSTORE PUSH1 0x20 DUP2 ADD SWAP1 POP PUSH2 0x454 JUMP JUMPDEST DUP4 DUP2 GT ISZERO PUSH2 0x47E JUMPI PUSH1 0x0 DUP5 DUP5 ADD MSTORE JUMPDEST POP POP POP POP JUMP JUMPDEST PUSH1 0x0 PUSH1 0x2 DUP3 DIV SWAP1 POP PUSH1 0x1 DUP3 AND DUP1 PUSH2 0x49C JUMPI PUSH1 0x7F DUP3 AND SWAP2 POP JUMPDEST PUSH1 0x20 DUP3 LT DUP2 EQ ISZERO PUSH2 0x4B0 JUMPI PUSH2 0x4AF PUSH2 0x4E7 JUMP JUMPDEST JUMPDEST POP SWAP2 SWAP1 POP JUMP JUMPDEST PUSH2 0x4BF DUP3 PUSH2 0x559 JUMP JUMPDEST DUP2 ADD DUP2 DUP2 LT PUSH8 0xFFFFFFFFFFFFFFFF DUP3 GT OR ISZERO PUSH2 0x4DE JUMPI PUSH2 0x4DD PUSH2 0x516 JUMP JUMPDEST JUMPDEST DUP1 PUSH1 0x40 MSTORE POP POP POP JUMP JUMPDEST PUSH32 0x4E487B7100000000000000000000000000000000000000000000000000000000 PUSH1 0x0 MSTORE PUSH1 0x22 PUSH1 0x4 MSTORE PUSH1 0x24 PUSH1 0x0 REVERT JUMPDEST PUSH32 0x4E487B7100000000000000000000000000000000000000000000000000000000 PUSH1 0x0 MSTORE PUSH1 0x41 PUSH1 0x4 MSTORE PUSH1 0x24 PUSH1 0x0 REVERT JUMPDEST PUSH1 0x0 DUP1 REVERT JUMPDEST PUSH1 0x0 DUP1 REVERT JUMPDEST PUSH1 0x0 DUP1 REVERT JUMPDEST PUSH1 0x0 DUP1 REVERT JUMPDEST PUSH1 0x0 PUSH1 0x1F NOT PUSH1 0x1F DUP4 ADD AND SWAP1 POP SWAP2 SWAP1 POP JUMP JUMPDEST PUSH2 0x573 DUP2 PUSH2 0x438 JUMP JUMPDEST DUP2 EQ PUSH2 0x57E JUMPI PUSH1 0x0 DUP1 REVERT JUMPDEST POP JUMP INVALID LOG2 PUSH5 0x6970667358 0x22 SLT KECCAK256 0xC2 PUSH32 0x1608378BBE21C2F9E2C1C5A083E3DD7E13C451D914EB8EC0363C6F4002886473 PUSH16 0x6C634300080700330000000000000000 "
				},
				"gasEstimates": {
					"creation": {
						"codeDepositCost": "292600",
						"executionCost": "331",
						"totalCost": "292931"
					},
					"external": {
						"data(uint256)": "infinite",
						"setter(uint256,string,uint256)": "infinite"
					}
				},
				"methodIdentifiers": {
					"data(uint256)": "f0ba8440",
					"setter(uint256,string,uint256)": "0c22cf41"
				}
			},
			"storageLayout": {
				"storage": [
					{
						"astId": 11,
						"contract": "mappingWithStruct.sol:mappingWithStruct",
						"label": "data",
						"offset": 0,
						"slot": "0",
						"type": "t_mapping(t_uint256,t_struct(Student)6_storage)"
					}
				],
				"types": {
					"t_mapping(t_uint256,t_struct(Student)6_storage)": {
						"encoding": "mapping",
						"key": "t_uint256",
						"label": "mapping(uint256 => struct mappingWithStruct.Student)",
						"numberOfBytes": "32",
						"value": "t_struct(Student)6_storage"
					},
					"t_string_storage": {
						"encoding": "bytes",
						"label": "string",
						"numberOfBytes": "32"
					},
					"t_struct(Student)6_storage": {
						"encoding": "inplace",
						"label": "struct mappingWithStruct.Student",
						"members": [
							{
								"astId": 3,
								"contract": "mappingWithStruct.sol:mappingWithStruct",
								"label": "name",
								"offset": 0,
								"slot": "0",
								"type": "t_string_storage"
							},
							{
								"astId": 5,
								"contract": "mappingWithStruct.sol:mappingWithStruct",
								"label": "class",
								"offset": 0,
								"slot": "1",
								"type": "t_uint256"
							}
						],
						"numberOfBytes": "64"
					},
					"t_uint256": {
						"encoding": "inplace",
						"label": "uint256",
						"numberOfBytes": "32"
					}
				}
			},
			"userdoc": {
				"kind": "user",
				"methods": {},
				"version": 1
			}
		}
	}
}